:020000040000FA
:100000000C94F8000C9420010C9420010C94D7124D
:100010000C94D7120C94D7120C9420010C9420014C
:100020000C9420010C9420010C9420010C942001CC
:100030000C9420010C9420010C9420010C942001BC
:100040000C9435120C9420010C94A5120C947F1280
:100050000C9420010C9420010C9420010C9420019C
:100060000C944F130C94200100407A10F35A00A016
:10007000724E18090010A5D4E80000E87648170071
:1000800000E40B54020000CA9A3B000000E1F505B1
:10009000000080969800000040420F000000A086FB
:1000A00001000000102700000000E803000000002D
:1000B0006400000000000A000000000001000000D1
:1000C00000002C76D888DC674F0823DFC1DFAE59EB
:1000D000E1B1B796E5E3E453C63AE651997696E87E
:1000E000E6C28426EB898C9B62ED407C6FFCEFBC02
:1000F0009C9F40F2BAA56FA5F490055A2AF75C932D
:100100006B6CF9676DC11BFCE0E40D47FEF520E662
:10011000B500D0ED902E0300943577050080841E45
:10012000080000204E0A000000C80C333333330FA0
:10013000986E12831141EF8D2114893BE65516CF3D
:10014000FEE6DB18D1844B381BF77C1D901DA4BB49
:10015000E424203284725E228100C9F124ECA1E5FE
:100160003D27CDCCCC3D0AD7233C17B7D13877CC2F
:100170002B329595E6241FB14F0A00002041000064
:10018000C84200401C4620BCBE4CCA1B0E5AAEC51D
:100190009D7400000000240027002A0000000008D1
:1001A000000201000003040700000000000000003E
:1001B00000000000230026002900000000002500A8
:1001C00028002B00040404040404040402020202B4
:1001D000020203030303030301020408102040800A
:1001E0000102040810200102040810206E14A71F49
:1001F00011241FBECFEFD8E0DEBFCDBF12E0A0E0DC
:10020000B1E0EEE2FEE402C005900D92A23EB1071D
:10021000D9F724E0A2EEB2E001C01D92A73EB207DA
:10022000E1F710E0C7EFD0E004C02197FE010E9483
:100230001225C63FD107C9F70E944B150C940A2717
:100240000C940000833081F028F4813099F08230E2
:10025000A9F008958730A9F08830C9F08430B1F44E
:10026000809180008F7D03C0809180008F77809384
:100270008000089584B58F7784BD089584B58F7DFF
:10028000FBCF8091B0008F778093B000089580916C
:10029000B0008F7DF9CFCF93DF93282F30E0F901A5
:1002A000E456FE4F8491F901E852FE4FD491F901D2
:1002B000EC53FE4FC491CC23A1F081110E94220186
:1002C000EC2FF0E0EE0FFF1FE055FE4FA591B4912B
:1002D000EC91ED2381E090E009F480E0DF91CF9193
:1002E000089580E090E0FACF1F93CF93DF93282FFB
:1002F00030E0F901E456FE4F8491F901E852FE4FD7
:10030000D491F901EC53FE4FC491CC23A9F0162FE0
:1003100081110E942201EC2FF0E0EE0FFF1FE65446
:10032000FE4FA591B4918FB7F894EC91111108C0CC
:10033000D095DE23DC938FBFDF91CF911F9108957D
:10034000DE2BF8CFCF93DF9390E0FC01E852FE4F15
:1003500024918C539E4FFC0184918823C9F090E036
:10036000880F991FFC01EE56FE4FA591B491FC0138
:10037000E654FE4FC591D49161110DC09FB7F8941A
:100380008C91209582238C938881282328839FBF7A
:10039000DF91CF910895623051F49FB7F8943C916A
:1003A000822F809583238C93E8812E2BEFCF8FB7FC
:1003B000F894EC912E2B2C938FBFEACF806480931E
:1003C0007C0080917A00806480937A0080917A002A
:1003D00086FDFCCF809178009091790008953FB719
:1003E000F8948091FD039091FE03A091FF03B091DA
:1003F000000426B5A89B05C02F3F19F00196A11D4A
:10040000B11D3FBFBA2FA92F982F8827BC01CD015E
:10041000620F711D811D911D42E0660F771F881FBD
:10042000991F4A95D1F708958F929F92AF92BF92EC
:10043000CF92DF92EF92FF924B015C010E94EF019D
:100440006B017C010E94EF016C197D098E099F09E7
:10045000683E734081059105A8F321E0821A910856
:10046000A108B10888EEC80E83E0D81EE11CF11C7B
:1004700081149104A104B10429F7FF90EF90DF905B
:10048000CF90BF90AF909F908F9008952FB7F89422
:100490006091F9037091FA038091FB039091FC0342
:1004A0002FBF089508950895DB0114964D915C9136
:1004B00015976D917C91DC01ED91FC910280F381A7
:1004C000E02D0994AF92BF92CF92DF92EF92FF920C
:1004D0000F931F93CF93DF936C017B018B01040F6C
:1004E000151FEB015E01AE18BF08C017D10759F008
:1004F0006991D601ED91FC910190F081E02DC6014A
:100500000995892B79F7C501DF91CF911F910F9143
:10051000FF90EF90DF90CF90BF90AF900895FC01D7
:10052000538D448D252F30E0842F90E0821B930B58
:10053000541710F0CF96089501970895FC01918DFE
:10054000828D981761F0A28DAE0FBF2FB11D5D9601
:100550008C91928D9F5F9F73928F90E008958FEFA3
:100560009FEF08950F931F930E9446026093090422
:1005700070930A0480930B0490930C0481E094E040
:100580000E949E0297FF1DC00E944602009109042E
:1005900010910A0420910B0430910C04601B710B24
:1005A000820B930B0091050410910604209107041F
:1005B000309108046017710782079307F8F28FEFF4
:1005C0009FEF1F910F910895FC01918D828D9817D7
:1005D00031F0828DE80FF11D858D90E008958FEF49
:1005E0009FEF0895FC01918D228D892F90E0805C12
:1005F0009F4F821B91098F739927089581E094E0A2
:100600000E94F20221E0892B09F420E0822F089554
:1006100080E090E0892B29F00E94FE0281110C9469
:1006200000000895FC01A48DA80FB92FB11DA35A95
:10063000BF4F2C91848D90E001968F739927848F02
:10064000A689B7892C93A089B1898C918370806425
:100650008C93938D848D981306C00288F389E02DC6
:1006600080818F7D80830895EF92FF920F931F9377
:10067000CF93DF93EC0181E0888F9B8D8C8D981355
:100680001AC0E889F989808185FF15C09FB7F89461
:10069000EE89FF896083E889F989808183708064AD
:1006A00080839FBF81E090E0DF91CF911F910F91F8
:1006B000FF90EF900895F62E0B8D10E00F5F1F4F07
:1006C0000F731127E02E8C8D8E110CC00FB607FC16
:1006D000FACFE889F989808185FFF5CFCE010E94A4
:1006E0001203F1CFEB8DEC0FFD2FF11DE35AFF4FFD
:1006F000F0829FB7F8940B8FEA89FB898081806232
:10070000CFCFCF93DF93EC01888D8823B9F0AA89EE
:10071000BB89E889F9898C9185FD03C0808186FDBC
:100720000DC00FB607FCF7CF8C9185FFF2CF80810B
:1007300085FFEDCFCE010E941203E9CFDF91CF916B
:1007400008952091D6033091D7032817390771F403
:100750009091D4038091D503981741F0E091D40390
:10076000F0E0EC56FC4F808190E008958FEF9FEF12
:1007700008950895EF92FF920F931F93CF93DF9305
:10078000DC015C96ED90FC905D97E114F10479F446
:1007900081E090E013969C938E93129790E080E016
:1007A000DF91CF911F910F91FF90EF900895519697
:1007B000ED91FC91529750968C915097982F90956F
:1007C0000FB75E962C915E97122F127021FD6095E7
:1007D000F8942081112319F1282B2083E701219718
:1007E000F1F728E0462F50E0308160FF1AC0382B27
:1007F0003083E7012197F1F7BA017595679521508C
:1008000089F7112381F08081892380830FBF5C9653
:100810008D919C910197F1F781E090E0C1CF292360
:10082000DCCF3923E5CF9081892BEFCF2091D60300
:100830003091D7032817390761F48091D5032091AF
:10084000D40390E0805C9F4F821B91098F7399279E
:10085000089590E080E008952091D6033091D70369
:1008600028173907B9F49091D4038091D5039817CC
:1008700089F0E091D403F0E0EC56FC4F80812091A8
:10088000D40330E02F5F3F4F2F7333272093D403DF
:1008900090E008958FEF9FEF08950895209123032E
:1008A000260F3327331F21323105ECF420916C03DE
:1008B000FC0190E080E0243069F082E00895A0918E
:1008C00023032191AC014D5F5C4FA40FB52FB11DE7
:1008D0002C930196861798F380912303680F6093F9
:1008E000230380E0089581E0089510926C0381E075
:1008F00080936B031092460361E082E10E947401D1
:1009000061E083E10E947401E9EBF0E080818E7F79
:10091000808380818D7F808388E48093B80085E424
:100920008093BC000895CF93DF9391E090930203EE
:100930008823B9F0C091B800D091BA008091BC0072
:100940008A7B8093BC0060E082E10E94740160E0D9
:1009500083E10E9474010E947504D093BA00C09391
:10096000B800DF91CF910895E091DF038091DE031D
:10097000E81730F4F0E0EE51FD4F808190E00895EB
:100980008FEF9FEF08959091DF038091DE032FEFAB
:100990003FEF981748F4E92FF0E0EE51FD4F20812A
:1009A00030E09F5F9093DF03C90108958091DE03DB
:1009B0009091DF03891B990B0895CF92DF92EF92FC
:1009C000FF920F931F93CF93DF937C01CB018A019A
:1009D00020917203222389F0EB016B01C40ED51E16
:1009E000CC15DD0569F06991D701ED91FC9101907D
:1009F000F081E02DC7010995F3CF642F0E944E04CA
:100A0000C801DF91CF911F910F91FF90EF90DF9080
:100A1000CF900895CF93DF931F92CDB7DEB7698350
:100A2000209172032223F9F02091DC03203258F048
:100A300021E030E0FC013383228390E080E00F90DE
:100A4000DF91CF9108958091DD03E82FF0E0ED581C
:100A5000FC4F998190838F5F8093DD038093DC034B
:100A600081E090E0ECCF61E0CE0101960E944E045F
:100A7000F7CFCF92DF92EF92FF920F931F93CF9316
:100A8000DF93FC01C48121E020937203C0939303A0
:100A90001092DD031092DC038385682B8EE994E0CD
:100AA0000E940A05D091DC03D13208F092C00E9466
:100AB000EF016B017C0180916C03811165C082E0C4
:100AC00080936C0381E080936B038FEF80936A03C4
:100AD00010926903D0936803A3E7B3E0E8E4F3E07E
:100AE00080E0D81385C01092470380914703CC0F54
:100AF000C82BC093470380914603813009F07CC026
:100B0000109246030E94EF016B017C018091470324
:100B10008093BB0080916E0390916F03A09170034E
:100B2000B0917103892B8A2B8B2B99F00E94EF01D6
:100B300000916E0310916F03209170033091710347
:100B40006C197D098E099F090617170728073907B1
:100B5000E0F18091BC0083FDD9CF85EC8093BC008F
:100B60000E94EF016B017C0180916C03823009F4DB
:100B700045C080916A038F3F61F180916A038032A2
:100B800041F180916A0325C080916E0390916F03BB
:100B9000A0917003B0917103892B8A2B8B2B09F4E0
:100BA0008ACF0E94EF0100916E0310916F03209194
:100BB0007003309171036C197D098E099F09061726
:100BC00017072807390708F076CF80916D030E9438
:100BD00093041092DD031092DC0310927203DF91F4
:100BE000CF911F910F91FF90EF90DF90CF900895DC
:100BF0009D9191938F5F75CF85EEB0CF80916E03FD
:100C000090916F03A0917003B0917103892B8A2B8F
:100C10008B2B09F4A9CF0E94EF0100916E03109174
:100C20006F0320917003309171036C197D098E0957
:100C30009F09061717072807390708F095CFC5CF72
:100C400090E080E008959C01FB01309761F0948171
:100C500090789A609483C901330FAA0BBB0B8083F1
:100C60009183A283B3830895982F80336CF08A33E5
:100C700024F08F3524F08B3724F481E008958134FB
:100C80001CF081E09B350CF080E00895FC01868526
:100C9000811114C0A185B285838594852FEF3FEF24
:100CA000A817B90730F4CD010196928781872C915E
:100CB00030E037FD20E0258781E08687858508952F
:100CC0001F93CF93DF93EC01162F0E9446068113EA
:100CD00006C01E8681E0DF91CF911F91089580E0CC
:100CE000FACF0F931F93CF93DF938C01EB01899180
:100CF000882369F0C8010E944606882379F0FE0126
:100D00003197908198130DC0F8011686F0CF90E0CE
:100D100080E0DF91CF911F910F91089582E090E0E4
:100D2000F8CF83E090E0F5CFCF93DF93EC01CE01D5
:100D30000E9446068B304CF489305CF4882359F0CD
:100D400081E0888790E080E00BC08D3011F0803228
:100D5000B9F71E86ECCF8885811105C081E090E04F
:100D6000DF91CF91089582E090E0FACFFC012481D9
:100D70003581A9014F5F5F4F8681978148175907D9
:100D800048F48281938155834483FC01E20FF31F71
:100D9000608308950190F081E02D81E080870895BF
:100DA0009F92AF92BF92CF92DF92EF92FF920F93FA
:100DB0001F93CF93DF9300D000D01F92CDB7DEB743
:100DC0008C010E944606D82ED8011E961C92F12C4A
:100DD000E12C60EFC62EC8010E944606F801168677
:100DE000D81609F4B4C0811113C082E090E00F90CE
:100DF0000F900F900F900F90DF91CF911F910F9157
:100E0000FF90EF90DF90CF90BF90AF909F900895AC
:100E10008C3509F09AC0C8010E944606882329F340
:100E2000ECE6F1E0853709F084C0D8011E961C92EB
:100E300054E0952EB12CA12CC8010E9446068823AF
:100E4000A1F2813434F48053803130F083E090E0BB
:100E5000CECF8F7D8753F8CF44E0AA0CBB1C4A95B8
:100E6000E1F7A82AF80116869A949110E5CFC501FA
:100E7000985D8115944020F47501F3E0FF22ABCF1B
:100E8000C5019C5D81159440A8F483E0B822B701A8
:100E9000762F6627770F770F6A297B2990E080E00D
:100EA0000196603871058105910540F4C8010E94E2
:100EB000B60691CFB50190E080E0F3CF1982262FDE
:100EC0002F7320682A8326E09695879577956795F6
:100ED0002A95D1F76032710580F4606C6B835E01F6
:100EE000A4E0AA0EB11CD5016E915D01662309F440
:100EF00072CFC8010E94B606F6CF262F2F73206846
:100F00002B8386E0769567958A95E1F760317105C8
:100F100038F4606E6C835E01B5E0AB0EB11CE3CFBC
:100F200060686C83CD825E01E6E0AE0EB11CDBCF63
:100F300032969081992309F489CF8913F9CF818161
:100F4000882309F483CFF8011686682FAFCF01906C
:100F5000F081E02D8085882319F084E090E047CF70
:100F600090E080E044CF4F925F926F927F928F9299
:100F70009F92AF92BF92CF92DF92EF92FF920F9328
:100F80001F93CF93DF93EB01DC012C912B32D9F12E
:100F90002D32D1F50196FF24F394FC01208130ED30
:100FA000320F3A3018F02E3209F042C18C0160E065
:100FB00070E0CB01F801219130ED832E820E39E0F3
:100FC000381520F16A3949E97407840749E1940723
:100FD00038F5AAE0B0E09B01AC010E947123912C8E
:100FE000B12CA12C2401350140945094609470944C
:100FF000461657066806790698F0680D791D8A1D11
:101000009B1D8F01D7CF0196F12CC7CF211108C0AE
:10101000FF20E9F161307105810550E89507A0F0E6
:10102000E12CBAE08B2E912CA12CB12C611571050D
:1010300030E883079105B0F1A50194010E94B32324
:10104000CA01B901E394F2CF2C8120782A602C8365
:101050009B01AC0188279927DC01821B930BA40B11
:10106000B50B88839983AA83BB838F2DDF91CF91A2
:101070001F910F91FF90EF90DF90CF90BF90AF90B6
:101080009F908F907F906F905F904F9008952C81EC
:10109000207828602C83688379838A839B83FF244C
:1010A000F394E3CFF801D8012D918D0130ED320F8B
:1010B0003A3010F4E394F6CF2E3201F58F010F5F32
:1010C0001F4FF8010F5F1F4F2081A0EDDA2ED20EC7
:1010D000B9E0BD1598F06C3CECEC7E07ECE08E07B7
:1010E000910578F7AAE0B0E09B01AC010E94712362
:1010F0006D0D711D811D911DEA94E3CF20812F7D1F
:1011000010E000E0253409F05BC021812D32D1F5DB
:101110003296CC24C394DF0110E000E02E2D0E2C7B
:10112000000C330B5AE0B52EFD01DD9040ED4D0D66
:101130004A3008F040C0B09EA001B19E500D11246D
:101140000D2DDD0C110B00531109040F151FA80103
:10115000420F531F473251053CF38C81CC20C9F01C
:1011600040E050E060E070E8F11003C040E050E083
:10117000BA0180788C608C83488359836A837B832F
:10118000FC2C73CF2B3219F03196C12CC4CF329680
:10119000FCCF40E050E060E87FEFF11004C040E099
:1011A00050E060E87FE780788C608C8348835983C7
:1011B0006A837B8374CFCC2019F0119501951109B6
:1011C0002081211135C00E0D111DE7FC1A950E94DA
:1011D0001D223AE7C32E31E0D32E101611063CF043
:1011E00011950195110942E6C42E41E0D42EE12C5F
:1011F0000115110591F000FF0CC024E0E29EF00102
:101200001124EC0DFD1D25913591459154910E94BD
:101210007E2215950795E394EBCFF11090582C8121
:1012200020782C602C83688379838A839B8337CFD3
:10123000F12C1BCFCF93DF9300D000D01F92CDB7FE
:10124000DEB7FC0194819F77963091F030F49430B2
:1012500020F560E070E0CB0111C09A30B9F09C300D
:1012600049F19830B1F7608171818281938104C026
:10127000608170E090E080E00E941D220F900F904E
:101280000F900F900F90DF91CF9108956081718141
:10129000828193810E941F22F1CF808191811D82E2
:1012A000BE016F5F7F4F0E94B307CE0101960E947F
:1012B0001A09E4CF6081718182819381DFCFCF935E
:1012C000DF93DC01EB01EC81FD818A819B81089633
:1012D000E817F90740F481E08887F0E0E0E0CF010B
:1012E000DF91CF9108953897FD83EC833097B9F360
:1012F0001296CD91DC911397209791F0CF018C1B22
:101300009D0B23E0959587952A95E1F78D8313969C
:10131000FC93EE9312971582148217821682DFCF08
:101320001196FC93EE93F3CFEF92FF920F931F93DE
:10133000CF93DF937C01DC0112962D913C911397A2
:10134000ED91FC91AB01420F531FEF01C60FD71F68
:10135000C217D307A0F4888181110BC0E901CF0126
:101360004C175D0751F00991DC011D91CD0101176A
:10137000B9F381918111FDCFE8CF309751F4620F1D
:10138000731FCB010196F70193838283DB011C92CB
:10139000F901CF01DF91CF911F910F91FF90EF9055
:1013A0000895FC012581222339F0F8E02F029001F5
:1013B0001124820F931F089590E080E00895EF922A
:1013C000FF920F931F93CF93DF9361E08091DB0433
:1013D0000E9474016AEF70E080E090E00E941402C5
:1013E0000E9446020091DE041091DF042091E00487
:1013F0003091E104601771078207930740F410925F
:10140000DE041092DF041092E0041092E1042091B7
:10141000E204211119C00091DE041091DF04209133
:10142000E0043091E104601B710B820B930B603D73
:1014300077408105910540F481E0DF91CF911F91C4
:101440000F91FF90EF9008951092E2040E944602DF
:101450006093DE047093DF048093E0049093E104D2
:101460001092D9041092D8041092D7041092D60486
:101470001092D50461E08091DB040E94A20160E03B
:101480008091DB040E94740164E170E080E090E0F0
:101490000E941402F89461E08091DB040E947401C0
:1014A0008BE990E00197F1F760E08091DB040E9406
:1014B000A20110E081E0C0E0D0E0E82EF12C8091A4
:1014C000DB040E944B018E159F0519F4DF5FDF3F9F
:1014D000B1F78091DB040E944B01DF3FC1F0C430C3
:1014E00098F0C0FD11C0E12FE695E695E695F0E095
:1014F000EB52FB4F9081990F90832091DD042D17C3
:1015000010F4916090831F5FCF5FC535A9F6789482
:101510001832B8F04091D9042091D5048091D604B6
:10152000280F3327331F8091D704280F311D809156
:10153000D804820F932F911D99274817190609F493
:101540007BCF80E07ACF0F931F93CF938C01C62F70
:101550000E9439056C2F6460C8010E9439056C2F08
:101560006B7FC8010E94390583EC90E00197F1F789
:10157000CF911F910F9108950F931F93CF93DF93F6
:101580008C01D62FC42F607F642B0E94A30A80E1B8
:10159000D89FB00111246C2BC801DF91CF911F910E
:1015A0000F910C94A30A40E061E089EC94E00E9462
:1015B000BC0A8BE39FE10197F1F70895CF93DF9386
:1015C000CDB7DEB728970FB6F894DEBF0FBECDBFFC
:1015D00098E0E6E1F1E0DE01119601900D929A9516
:1015E000E1F79091D104981708F48FEF90E0880FFD
:1015F000991F21E030E02C0F3D1F820F931FFC014B
:101600006081606840E089EC94E028960FB6F89419
:10161000DEBF0FBECDBFDF91CF910C94BC0A41E07D
:101620000E94BC0A81E090E00895FC010190002036
:10163000E9F73197AF01481B590BBC0181E094E0F9
:101640000C946202CF93DF936115710579F1EB0180
:10165000DC018D919C91009759F1DC011696ED917A
:10166000FC91DE010D900020E9F71197AD014C1BB4
:101670005D0B30E020E0309749F0DF010D90002055
:10168000E9F79D01215031092E1B3F0B2417350727
:1016900051F4DE012C0F3D1F2A173B0749F05D91E5
:1016A00041915417C9F30E94D109D5CF90E080E051
:1016B000DF91CF9108959F92AF92BF92CF92DF9228
:1016C000EF92FF920F931F93CF93DF93EC017B0177
:1016D000D42E0E9494068C01892B09F052C0CE01B1
:1016E0000E944606863609F455C194F5873229F0E2
:1016F0008B35D1F1823209F056C1E881F9818281BE
:1017000093819B838A838481958122813381821B8B
:10171000930B9F838E831D821C82892B11F481E0A1
:101720008087CE010E94D0068C01892B51F5AC80B8
:10173000BD80B501888199810E949409F7012481B7
:1017400020782560248391838083B382A28219C08C
:10175000843709F408C18B3709F453C08E3609F079
:1017600022C168E871E008C1F70184818078806453
:1017700084831182108213821282D1100FC005E07F
:1017800010E0C801DF91CF911F910F91FF90EF9072
:10179000DF90CF90BF90AF909F9008951E86CE01AE
:1017A0000E949406009709F02DC16DE5CE010E94BC
:1017B00060068111E6CFDA946F857889C7010E94AF
:1017C0005F09009709F46EC04D2DBC01CE010E9447
:1017D0005B0B009709F016C1CE010E94940600979A
:1017E00009F010C16DE5CE010E9460068111C9CFDC
:1017F0006CE2CE010E9460068111DECF03E010E0B2
:10180000C0CFF70184818078806284831182108246
:1018100013821282DD2009F4B2CF1E86CE010E940F
:101820009406009709F0EEC06DE7CE010E946006B5
:101830008111A7CFBB24B394DA94E881F981828126
:1018400093819B838A838481958122813381821B4A
:10185000930B9F838E831D821C82892B09F4B08693
:10186000CE010E944606873201F18232F1F0CE01AC
:101870000E944606182F0E943406882309F4BECF22
:101880001E86612FCE010E94B606CE010E9446063A
:10189000182F0E9434068111F3CFE881F9818085E9
:1018A000882351F004E010E06CCFCE010E94D006F6
:1018B0008C01892B09F065CFCE010E9494068C0122
:1018C000892B09F05ECF6AE3CE010E94600688236F
:1018D00009F494CFEA81FB818C819D81E80FF91F87
:1018E00010820C811D816A817B81C7010E94220BBD
:1018F000BC01892BA1F4B801888199810E949409C7
:101900008C016F857889C7010E945F09FC01892BD2
:1019100049F284818068848317830683BF014D2D3B
:10192000CE010E945B0B8C01892B09F02ACFCE01DE
:101930000E9494068C01892B09F023CF6DE7CE011C
:101940000E94600681111DCF6CE2CE010E946006EC
:10195000882309F453CFCE010E9494068C01892B71
:1019600009F46BCF0ECFF701848180788660848381
:1019700081E080836DE771E0CE01DF91CF911F910F
:101980000F91FF90EF90DF90CF90BF90AF909F901E
:101990000C947106F70184818078866084831082BC
:1019A00062E871E0E9CFCE010E9446065E01F1E1F6
:1019B000AF0EB11CD12C9A2CCB2C803374F08A330F
:1019C00074F49FE3D91699F01E86D394F5018193A0
:1019D0005F01CE010E944606F0CF8B3291F393ED6A
:1019E000980F923070F3982F9F7D953451F3CD0D61
:1019F000D11D198AB701892D9C2D0E94B307811131
:101A0000C0CEFCCE8C01BDCEEF92FF920F931F9300
:101A1000CF93DF93EC018C81982F9F7739F48078F6
:101A200080628C83198218821B821A828C8185FFC6
:101A30001DC061157105D1F07A018B01CE010E94A4
:101A4000220B009761F4B701CE010E945F09009755
:101A500031F0FC0124812F77248317830683DF91E3
:101A6000CF911F910F91FF90EF90089590E080E04B
:101A7000F6CFFC01248125FF04C0009711F00C94DF
:101A8000220B90E080E00895CF93DF93EC018881F2
:101A90009981009711F00E94B425198218821D8245
:101AA0001C821B821A82DF91CF910895FC018081F4
:101AB0009181009711F00C94B42508950F931F9312
:101AC000CF93DF93EC0188819981009759F02A81A7
:101AD0003B812617370730F081E0DF91CF911F91CE
:101AE0000F9108958B016F5F7F4F0E943D260097F5
:101AF00059F0998388831B830A832C813D81232B92
:101B000059F7FC011082E8CF80E0E7CFEF92FF9217
:101B10000F931F93CF93DF936115710541F480E01C
:101B2000DF91CF911F910F91FF90EF900895411594
:101B30005105B1F07B01EC010C811D81040F151FD3
:101B4000B8010E945E0D882351F3288139818C8170
:101B50009D81B701820F931F0E9403271D830C8371
:101B600081E0DECFCF93DF93EC01FB01448155810F
:101B7000608171810E94860D811103C0CE010E9497
:101B8000440DCE01DF91CF910895CF93DF93EC0107
:101B9000EAA1FBA1E80FF91F1282BC016E5F7F4F23
:101BA00081F0FB0101900020E9F73197AF01461B5E
:101BB000570B888199810E94860D882311F01BA202
:101BC0001AA28AA19BA1DF91CF9108951F93CF9371
:101BD000DF93EC01162F8AA19BA101968097B8F4A0
:101BE0008AA19BA19C012F5F3F4F3BA32AA38C0F8F
:101BF0009D1FFC01128321E030E08CA19DA1820F8A
:101C0000931F9DA38CA3DF91CF911F910895CE01C7
:101C10000E94C50D892B21F330E020E0EECFBF926A
:101C2000CF92DF92EF92FF920F931F93CF93DF93A8
:101C3000EC016A018B017B01E40EF51EE016F10652
:101C4000D1F0F801B1908F018AA19BA101968097F4
:101C500060F48AA19BA19C012F5F3F4F3BA32AA365
:101C60008C0F9D1FFC01B282E9CFCE010E94C50DF1
:101C7000892B79F3E3CF4CA15DA14C0D5D1D5DA3D4
:101C80004CA3DF91CF911F910F91FF90EF90DF90C8
:101C9000CF90BF9008958F929F92AF92BF92CF92B4
:101CA000DF92EF92FF920F931F93CF93DF93CDB705
:101CB000DEB766970FB6F894DEBF0FBECDBF6C01DE
:101CC0008E01095E1F4F78018AE0882E912CA12C8D
:101CD000B12CCB01BA01A50194010E94B323942F2A
:101CE000852F605DF80162938F01A901692F782F1C
:101CF000411551056105710561F7A7014E1B5F0B89
:101D0000BF01C6010E940F0E66960FB6F894DEBFA3
:101D10000FBECDBFDF91CF911F910F91FF90EF903C
:101D2000DF90CF90BF90AF909F908F900895FB0170
:101D300001900020E9F73197AF01461B570B0C9437
:101D40000F0E1F93CF93DF93ECE6F1E01281112386
:101D500079F0329621816213F9CFEC016CE50E9493
:101D6000E60D612FCE01DF91CF911F910C94E60D0E
:101D70006111F9CF6DE871E0DF91CF911F910C9463
:101D8000970E2F923F924F925F926F927F928F9217
:101D90009F92AF92BF92CF92DF92EF92FF920F93FA
:101DA0001F93CF93DF93CDB7DEB76C970FB6F89440
:101DB000DEBF0FBECDBF8C011B01DC0114968C91E0
:101DC00014978F77863009F499C268F58230A0F1B4
:101DD0001296ED90FC901397CC901196DC90843085
:101DE00008F05DC2A701B601C1010E940F0EF1010A
:101DF00084A195A16C960FB6F894DEBF0FBECDBF3F
:101E0000DF91CF911F910F91FF90EF90DF90CF90D6
:101E1000BF90AF909F908F907F906F905F904F900A
:101E20003F902F9008958C3069F160F4883009F468
:101E300060C28A3009F446C268E871E0C1010E94BC
:101E4000970EECC1803209F4F3C18034A9F76BE539
:101E5000C1010E94E60DF8010081118101151105F3
:101E600009F4E1C1B101C8010E94C10EC8010E947C
:101E7000D1098C01892B09F4D6C16CE2C1010E9401
:101E8000E60DECCFF801C080D180E280F380A7019D
:101E90009601C701B6010E9418228111CDCF20E022
:101EA00030E0A901C701B6010E941822882379F009
:101EB000A7019601C701B6010E94E5239B01AC0171
:101EC000C701B6010E941822882309F4B5CF20E08B
:101ED00030E0A901C701B6010E94182287FF08C09F
:101EE0006DE2C1010E94E60DF7FAF094F7F8F09464
:101EF00020E836E948E15BE4C701B6010E94F2241C
:101F000087FD88C074E1A72EB12C00E210E0188E86
:101F10001F8AF501E658FE4F659175918591949160
:101F2000A70196010E94182218169CF0F501EE599F
:101F3000FE4F2591359145915491C701B6010E94FC
:101F40007E226B017C012F89388D200F311F388F45
:101F50002F8B1595079534E0A31AB1088CEFA816BE
:101F60008FEFB806B1F655245A9420E030E0A9016D
:101F7000C701B6010E94F22418160CF052C02CEAD8
:101F800035EC47E257E3C701B6010E941822181644
:101F90000CF447C0A52DB4E0AB02C0011124B12C54
:101FA000A12CFC01EE59FE4F3F019C0126583E4FEB
:101FB00049013FEF531609F434C0F301EA0DFB1D4C
:101FC000659175918591949120E030E040E251E473
:101FD0000E947E22A70196010E94F22418169CF40A
:101FE000F401EA0DFB1D2591359145915491C701EE
:101FF000B6010E947E226B017C018F89988D801B27
:10200000910B988F8F8B159507955A9494E0A91A88
:10201000B108CFCF00E210E055E0552E188E1F8A90
:10202000A4CFC701B6010E94C3244B015C012B0160
:102030003C0106E080E492E4AFE0B0E0898F9A8F43
:10204000AB8FBC8F102F01509AE0491651046104E8
:102050007104C8F0698D7A8D8B8D9C8D2AE030E0FB
:1020600040E050E00E94B323298F3A8F4B8F5C8F62
:10207000C301B2012AE030E040E050E00E94B32307
:1020800029013A01DFCFC501B4010E941D229B0145
:10209000AC01C701B6010E94E4236B017C01698D8C
:1020A0007A8D8B8D9C8D0E941D229B01AC01C701F6
:1020B000B6010E947E222B013C010E94C3246B01C9
:1020C0007C010E941D229B01AC01C301B2010E9450
:1020D000E4239B01AC010E94E5230E94C324C60EA9
:1020E000D71EE81EF91E898D9A8DAB8DBC8DC81642
:1020F000D906EA06FB06D8F09FEF891A990AA90AC1
:10210000B90AAF89B88DAB2B39F1BAE08B169104BF
:10211000A104B10408F1EF89F88D3196F88FEF8BA7
:10212000C12CD12C7601812C912C540183942AE06E
:10213000422E512C612C712CC701B601A3019201D2
:102140000E94B323672B682B692B51F4111644F4BA
:1021500069017A011150F0CFC12CD12C7601E7CF63
:10216000B501A401C1010E944B0E112371F14E0172
:10217000F1E18F0E911C012F54019AE0492E512C50
:10218000612C712C015068F0C701B601A3019201C6
:102190000E94B323605DD4016E934D0169017A0101
:1021A000F1CF812F90E0BC0160957095F501E81B9F
:1021B000F90B31978EE2808344275527461B570B36
:1021C0006A0D7B1DC1010E940F0EEF89F88DEF2B68
:1021D00029F165E6C1010E94E60D0F89188D17FFF0
:1021E00007C06DE2C1010E94E60D1195019511092C
:1021F000FE0177969F018AE0E82EF12CC801B70115
:102200000E94F724805D82938B01672BB9F7A901A7
:102210004E1B5F0BBF01C1010E940F0ED1019496AE
:102220008D919C91E7CD6DE5C1010E94E60DF6CF41
:102230006BE7C1010E94E60DF801008111810115D3
:10224000110559F1D8011696CC9016971796DC9087
:1022500062E2C1010E94E60D7601F70161917F0102
:10226000662321F0C1010E94A10EF7CF62E2C101F5
:102270000E94E60D6AE3C1010E94E60DB101C801AA
:102280000E94C10EC8010E94D1098C01892B29F03E
:102290006CE2C1010E94E60DD2CF6DE7C5CF62E2CC
:1022A000C1010E94E60D8601E00EF11EE016F10666
:1022B00039F0F80161918F01C1010E94A10EF6CFA2
:1022C00062E2B2CFCD90DD90ED90FC90B701A60117
:1022D000F7FE0BC06DE2C1010E94E60D44275527B1
:1022E000BA014C195D096E097F09C1010E944B0EAC
:1022F0007ECD4D915D916D917C91F7CF8C916DE785
:1023000071E0811102C062E871E0C1010E94970E84
:102310006ECDEF92FF920F931F93CF93DF93EC015B
:102320007B018A01BA010E945E0D81110BC0CE01B2
:102330000E94440DCE01DF91CF911F910F91FF902C
:10234000EF9008951D830C83B701888199810E94C5
:102350000327F0CFEF92FF920F931F93CF93DF935A
:10236000CDB7DEB7A1970FB6F894DEBF0FBECDBFD5
:102370007C01CB01BA01F701118210821382128213
:10238000158214828E010F5F1F4F22E044E00E94ED
:10239000C31F0097C9F0FC0101900020E9F73197B5
:1023A000AF01481B590BBC01C7010E948911A196BE
:1023B0000FB6F894DEBF0FBECDBFDF91CF911F9156
:1023C0000F91FF90EF900895C7010E94440DEFCF49
:1023D000FC01118210821382128215821482FB0189
:1023E00001900020E9F73197AF01461B570B0C9481
:1023F000891185ED8093BC0080916E0390916F03ED
:10240000A0917003B09171030796A11DB11D23E047
:10241000B695A795979587952A95D1F72091BC00F9
:1024200024FD03C010926C03089540916E035091F7
:102430006F036091700370917103452B462B472BFE
:1024400069F30097A105B10541F02AE22A95F1F759
:1024500000C00197A109B109E1CF80916D030C94EF
:1024600093040C9444230C943C231F920F920FB6B8
:102470000F9211242F933F938F939F93AF93BF930A
:102480008091F9039091FA03A091FB03B091FC03B2
:102490003091F80323E0230F2D3758F50196A11D45
:1024A000B11D2093F8038093F9039093FA03A0934E
:1024B000FB03B093FC038091FD039091FE03A09178
:1024C000FF03B09100040196A11DB11D8093FD038F
:1024D0009093FE03A093FF03B0930004BF91AF91CC
:1024E0009F918F913F912F910F900FBE0F901F9052
:1024F000189526E8230F0296A11DB11DD2CF1F9279
:102500000F920FB60F9211242F933F934F935F9327
:102510006F937F938F939F93AF93BF93EF93FF93AB
:1025200081E094E00E941203FF91EF91BF91AF917F
:102530009F918F917F916F915F914F913F912F91DB
:102540000F900FBE0F901F9018951F920F920FB60D
:102550000F9211242F938F939F93EF93FF93E0910A
:102560001104F09112048081E0911704F091180495
:1025700082FD1BC0908180911A048F5F8F73209120
:102580001B04821741F0E0911A04F0E0EF5FFB4F6B
:10259000958F80931A04FF91EF919F918F912F91C6
:1025A0000F900FBE0F901F9018958081F4CF1F924F
:1025B0000F920FB60F9211242F933F934F935F9377
:1025C0006F937F938F939F93AF93BF93EF93FF93FB
:1025D000E091D603F091D703309749F0A685B785EF
:1025E0008585968D91FF14C09C918923A1F4FF915C
:1025F000EF91BF91AF919F918F917F916F915F917B
:102600004F913F912F910F900FBE0F901F901895F3
:102610009C91892361F7A389B4899C9185898095D0
:1026200089238C93868997890197F1F7608D718D45
:10263000A685B785558538E020E0CB010197F1F7F5
:10264000822F90E095958795282F4C91452309F08E
:102650002068315091F7868D81FD20958091D503BA
:1026600090E001968F7399273091D403381799F031
:10267000A091D503B0E0AC56BC4F2C938093D5030A
:10268000828D938D0197F1F7A389B4898C919589F7
:10269000892B8C93ACCF868D8160868FF1CF1F9272
:1026A0000F920FB60F9211242F933F934F935F9386
:1026B0006F937F938F939F93AF93BF93EF93FF930A
:1026C0008091B900887F803609F44AC0F0F58832DD
:1026D00009F4A7C018F5803109F49BC0B8F4882329
:1026E00009F4F9C0883009F494C0FF91EF91BF91CB
:1026F000AF919F918F917F916F915F914F913F919A
:102700002F910F900FBE0F901F901895883109F4EC
:1027100088C0803251F780936A0314C0803409F472
:102720009DC040F48033B9F38833F9F680936A038F
:1027300085ECB0C0803509F485C0883509F496C0B1
:10274000883499F60E94F911D0CF883909F48CC0E9
:1027500038F5883729F050F4883611F0803729F69B
:1027600083E080936C031092450357C0883809F4C6
:102770007BC0803919F0803809F0B7CF80914503CC
:10278000803208F071C0E091450381E08E0F8093A4
:1027900045038091BB00F0E0EB5DFC4F80833DC0C2
:1027A000803B39F0E0F4803A09F479C0883A09F0C6
:1027B0009CCF84E080936C03109224031092230337
:1027C000E091DA03F091DB030995809123038111F5
:1027D0000FC081E0809323031092030309C0803C63
:1027E00009F4A6CF883C09F4A3CF883B09F07DCF3C
:1027F000E091240381E08E0F80932403F0E0ED5FED
:10280000FC4F80818093BB0090912403809123032F
:1028100029C0809147038093BB0085EC8093BC0066
:1028200064CF9091690380916803981758F5E091FF
:10283000690381E08E0F80936903F0E0E85BFC4F51
:102840008081E9CFE091690381E08E0F8093690375
:102850008091BB00F0E0E85BFC4F808390916903BE
:10286000809168039817C8F285E8D8CFE091690392
:1028700081E08E0F809369038091BB00F0E0E85BFC
:10288000FC4F808380916B0381115CCF81E080934A
:10289000460384EA8093BC0010926C0326CF85EC3B
:1028A0008093BC0010926C0380914503803230F419
:1028B000E0914503F0E0EB5DFC4F10826091450331
:1028C00070E0E091D803F091D90385E293E0099597
:1028D000109245030ACF10926A0334CF1092040479
:1028E0001092030448EE53E060E070E0409305046A
:1028F0005093060460930704709308048EE291E0FD
:10290000909302048093010485EC90E090930E0470
:1029100080930D0484EC90E09093100480930F0456
:1029200080EC90E0909312048093110481EC90E08D
:10293000909314048093130482EC90E09093160417
:102940008093150486EC90E090931804809317040C
:1029500010921A0410921B0410921C0410921D0471
:102960001092A1041092A0044093A2045093A304D7
:102970006093A4047093A50480E491E090939F0475
:1029800080939E0482E08093DB049BE09093DC04C0
:1029900096E09093DD0491E09093E2041092CC04D1
:1029A0001092CB0424E631E03093CA042093C9048A
:1029B00027E22093CD0420E12093D2048093D30416
:1029C0001092D4041092AD041092AC044093AE0463
:1029D0005093AF046093B0047093B10422E531E0EA
:1029E0003093AB042093AA041092C1041092C00447
:1029F0001092C3041092C2041092C5041092C40431
:102A00001092C7041092C6048091C8048E7F8D7FF7
:102A10008093C80486958170682F69278BE00E9497
:102A2000740161E08BE00E94A201E3EEF1E0E49129
:102A3000E093BA04EFECF1E0E491F0E0EE0FFF1F59
:102A4000E654FE4F859194919093BC048093BB040F
:102A500060E08AE00E94A2018091C80481FD04C068
:102A600061E08AE00E9474018AE08093B604E2EE9D
:102A7000F1E0E491E093B704EEECF1E0E491F0E0F2
:102A8000EE0FFF1FE055FE4F859194919093B9048E
:102A90008093B8040895CF93DF93CDB7DEB7CD5CB4
:102AA000D1400FB6F894DEBF0FBECDBF789484B589
:102AB000826084BD84B5816084BD85B5826085BD3A
:102AC00085B5816085BD80916E00816080936E00C8
:102AD00010928100809181008260809381008091BA
:102AE000810081608093810080918000816080936B
:102AF00080008091B10084608093B1008091B0002B
:102B000081608093B00080917A00846080937A0025
:102B100080917A00826080937A0080917A0081604F
:102B200080937A0080917A00806880937A00109276
:102B3000C100E0911104F091120482E08083E091E1
:102B40001104F09112041082E0910D04F0910E0432
:102B50001082E0910F04F091100480E180831092C4
:102B60001904E0911504F091160486E08083E09149
:102B70001304F0911404808180618083E091130438
:102B8000F0911404808188608083E0911304F091B7
:102B90001404808180688083E0911304F091140410
:102BA00080818F7D80831092C5041092C40410929E
:102BB000C3041092C2041092C1041092C00482E4B3
:102BC00090E09093C7048093C6049091B604963128
:102BD00008F047C02FE030E03093C1042093C004D8
:102BE00020E430E03093C3042093C20427E230E0B5
:102BF0003093C5042093C4042091680084E0983089
:102C000048F031E09E3008F430E081E001C0880FE8
:102C10003A95EAF7822B809368002DE630E09830F1
:102C200050F02BE630E09E3030F02CE630E096316C
:102C300010F030E020E03093BE042093BD04292F33
:102C400030E0983008F06EC181E001C0880F9A959D
:102C5000EAF78093BF048091C6049091C70401975E
:102C6000F1F78091C4049091C504892B49F1E0915A
:102C7000D603F091D70324E0EA3AF20709F130973E
:102C800039F0A389B4899C918589809589238C9397
:102C90008091C8048E7F8093C8041092D50310924F
:102CA000D4038AEA94E09093D7038093D603E0910B
:102CB000BD04F091BE0480819091BF04892B808374
:102CC0001092DF031092DE031092DD031092DC03FA
:102CD0000E94750482E592E09093DB038093DA030F
:102CE00083E592E09093D9038093D8031092CE04A9
:102CF0008091D304823018F098E09093CE048093B2
:102D0000D10462E370E080E090E00E9414026091E0
:102D1000D40489EC94E00E94390568EE73E080E009
:102D200090E00E94140260E389EC94E00E94A30A00
:102D30000BE416E4C8010197F1F760E389EC94E035
:102D40000E94A30AC8010197F1F760E389EC94E0BF
:102D50000E94A30A83E592E00197F1F760E289EC13
:102D600094E00E94A30A6091CE04606240E089EC86
:102D700094E00E94BC0A84E08093CF0440E06CE0C1
:102D800089EC94E00E94BC0A0E94D30A82E08093FE
:102D9000D00440E066E089EC94E00E94BC0A40E088
:102DA00062E089EC94E00E94BC0A8BE39FE101970A
:102DB000F1F788E08093D40460E089EC94E00E940D
:102DC000390560E082E00E94A20162E083E00E9497
:102DD000A20162E084E00E94A20162E085E00E941C
:102DE000A20161E086E00E94A20161E087E00E940A
:102DF000A20161E088E00E94A20161E089E00E94F6
:102E0000A20190E080E00E943312882371F0682FC5
:102E100070E090E080E00E941D22609308017093B2
:102E2000090180930A0190930B0181E090E00E94D8
:102E30003312882371F0682F70E090E080E00E94E8
:102E40001D2260930C0170930D0180930E019093ED
:102E50000F0182E090E00E943312882371F0682F06
:102E600070E090E080E00E941D226093000170936A
:102E70000101809302019093030183E090E00E949E
:102E80003312882371F0682F70E090E080E00E9498
:102E90001D226093040170930501809306019093B5
:102EA000070160E08091DB040E94A20161E0809153
:102EB000DB040E9474011092DE041092DF04109271
:102EC000E0041092E1048E0109521F4F6E013FE0B1
:102ED000C30ED11C1E0188E3281A8EEF380A81E048
:102EE00094E00E94F202FE0131967F01892B09F4E1
:102EF000B9C06CE771E0CE01845B9E4F0E94E8117F
:102F00000E94B20297FD1BC08A309105C1F08983EF
:102F10001A8241E050E0B701CE01845B9E4F0E94CF
:102F2000860DEECF9E3040F42850310981E001C07B
:102F3000880F2A95EAF78DCE2E503109F7CFC85D5C
:102F4000DE4F19821882C852D140C65DDE4F198209
:102F50001882CA52D140C45DDE4F19821882CC5209
:102F6000D140C45BDE4F68817981CC54D14061157A
:102F7000710559F0C05BDE4F48815981C055D14081
:102F8000CE01885D9E4F0E948911DA82C982DC825F
:102F9000CB821E830D8318870F8319861E86C85D1A
:102FA000DE4F28813981C852D140C45DDE4F88810F
:102FB0009981CC52D140820F931FC054DE4FF982C9
:102FC000E882C05CD14048E0FE01E054FE4FDE01E3
:102FD000A854BE4F01900D924A95E1F748E0FE01DA
:102FE000E854FE4FD80101900D924A95E1F7F8019F
:102FF000108632872187948783871686F08AE78632
:103000004AE0BE01665F7F4FC8010E945B0B5C0116
:10301000892B59F4F8018585882309F412C78E8518
:1030200083FF0FC723E0A22EB12C84E991E00E9418
:10303000150BF501EE0FFF1FE25EFE4F80819181BF
:10304000009711F00E94150B8CEA91E00E94150B7D
:10305000CE01885D9E4F0E94560DCE01845B9E4F2F
:103060000E94560D81E00E94DE0124E630E0DC0182
:103070000E940B2523E532E040E050E00E945223FD
:10308000CA01B9010E941F226093F4037093F503F3
:103090008093F6039093F7030E94DF09882349F099
:1030A0008091DC048B30F1F020F08551823008F4FF
:1030B00040C088E092E00E94150B60E070E080EC78
:1030C0009FE717C060E070E0CB01CEC660E070E023
:1030D000CB01EBC660E070E0CB0108C760E070E0B8
:1030E000CB0126C76091D50470E090E080E00E949B
:1030F0001D226093F0037093F1038093F203909389
:10310000F3030E94DF09882349F08091DC048B30AF
:1031100089F120F08551823008F4AFC288E092E056
:103120000E94150B812C912C80ECA82E8FE7B82ED5
:103130002AC06091D50470E090E080E00E941D22DA
:1031400020E030E040E853E40E947E224B015C0125
:103150006091D60470E090E080E00E941F22A501FB
:1031600094010E94E52320E030E040E251E40E9417
:103170005124BFCF6091D70470E090E080E00E94BE
:103180001D224B015C018092EC039092ED03A09212
:10319000EE03B092EF0380E00E94DE01BC01990FC4
:1031A000880B990B0E941F222B013C014092E803DF
:1031B0005092E9036092EA037092EB03DA82C982CB
:1031C000DC82CB821E830D8318870F8319861E86AF
:1031D000A70162E172E0CE010A960E94040DFC0193
:1031E000892B81F04091F4035091F5036091F6032F
:1031F0007091F703948190789C609483408351830D
:1032000062837383A7016FE172E0CE010A960E9488
:10321000040DFC01892B81F04091F0035091F103E2
:103220006091F2037091F303948190789C60948391
:103230004083518362837383A7016DE272E0CE0104
:103240000A960E94040DFC01892B41F0948190782C
:103250009C60948380829182A282B382A70169E3F9
:1032600072E0CE010A960E94040DFC01892B41F008
:10327000948190789C6094834082518262827382B0
:1032800086E00E944B015C01A70167E472E0CE0179
:103290000A960E94040DBC01C5010E94230687E026
:1032A0000E944B015C01A70164E572E0CE010A9621
:1032B0000E94040DBC01C5010E94230688E00E9403
:1032C0004B015C01A70162E672E0CE010A960E9402
:1032D000040DBC01C5010E94230689E00E944B0138
:1032E0005C01A70163E772E0CE010A960E94040D1B
:1032F000BC01C5010E9423066CE771E0C1010E9478
:10330000E811CC56DE4F39822882C459D140CA54C4
:10331000DE4F19821882C65BD14084E2FE01EC5672
:10332000FE4FDE01A059BE4F01900D928A95E1F744
:1033300084E2FE01E059FE4FDE01A45BBE4F019026
:103340000D928A95E1F784E2FE01E45BFE4FDE0117
:10335000A85DBE4F01900D928A95E1F784E2FE01CF
:10336000E85DFE4FD80101900D928A95E1F7F801D2
:1033700015A214A2CE01885D9E4F0E94C50DCE01FC
:10338000845B9E4F0E94C50DB801CE010A960E9433
:10339000C10EC8010E94C50DCE0180599E4F0E94EA
:1033A000C50DCE018C569E4F0E94C50DB10181E026
:1033B00094E00E9454028CEA91E00E94150B209147
:1033C0000C0130910D0140910E0150910F0160915F
:1033D000F0037091F1038091F2039091F3030E9446
:1033E000F22461E018160CF060E088E00E9474019D
:1033F000409008015090090160900A0170900B0103
:10340000A30192016091EC037091ED038091EE03B2
:103410009091EF030E94182261E087FF60E086E050
:103420000E94740120910401309105014091060130
:10343000509107016091E8037091E9038091EA03DC
:103440009091EB030E94182261E087FF60E087E023
:103450000E9474012091000130910101409102010C
:10346000509103016091F4037091F5038091F6038C
:103470009091F7030E94182261E087FF60E089E0E5
:103480000E94740183E00E944B015C0184E00E9471
:103490004B017C0185E00E944B014C018091E703C8
:1034A00081111BC1A114B104A9F50E94460220910B
:1034B000E3033091E4034091E5035091E603621B7E
:1034C000730B840B950B653671058105910510F121
:1034D0000E9446026093E3037093E4038093E50344
:1034E0009093E60381E08093E7038091E2038111EA
:1034F0001AC18091E0039091E1038330910509F4B2
:10350000E7C001969093E1038093E0038091E70385
:10351000811109C1E114F104A1F50E944602209134
:10352000E3033091E4034091E5035091E603621B0D
:10353000730B840B950B653671058105910508F1B8
:103540000E9446026093E3037093E4038093E503D3
:103550009093E60381E08093E7038091E203811179
:1035600007C18091E0039091E103009709F4D8C06E
:1035700001979093E1038093E0038091E703811129
:10358000F7C0892809F05CC00E9446022091E3033D
:103590003091E4034091E5035091E603621B730B05
:1035A000840B950B653671058105910508F448C0BB
:1035B0000E94D30A0E9446026093E3037093E403DF
:1035C0008093E5039093E60391E09093E703809165
:1035D000E20389278093E203811132C0C301B20163
:1035E0000E94C32490E080E00E94311260910C019F
:1035F00070910D0180910E0190910F010E94C324E2
:1036000081E090E00E94311260910001709101010F
:1036100080910201909103010E94C32482E090E016
:103620000E943112609104017091050180910601A0
:10363000909107010E94C32483E090E00E94311220
:103640008091E0039091E1038130910509F4E3C199
:103650000CF0B4C0892B09F44BC1C1010E94560D76
:1036600080E090E0892B09F43ACC0E94FE02882386
:1036700009F42CCC0E94000029CC7090D704672D4F
:103680006F7770E090E080E00E941F2220E030E041
:1036900040E853E40E947E224B015C016091D80413
:1036A00070E090E080E00E941F22A50194010E943A
:1036B000E52320E030E040E251E40E9451244B0138
:1036C0005C0177FE60CDB7FAB094B7F8B0945BCDEB
:1036D0001092E1031092E00319CFA114B10419F183
:1036E0000E9446022091E3033091E4034091E503F8
:1036F0005091E603621B730B840B950B65367105C5
:103700008105910580F00E9446026093E303709367
:10371000E4038093E5039093E6031092E703F6CE6B
:1037200083E090E026CFE114F10411F10E944602FB
:103730002091E3033091E4034091E5035091E603C7
:10374000621B730B840B950B653671058105910522
:1037500078F00E94D30A0E9446026093E3037093BC
:10376000E4038093E5039093E6031092E70305CF0B
:10377000892809F465CF0E9446024090E3035090E7
:10378000E4036090E5037090E60364197509860907
:103790009709653671058105910508F451CF0E949E
:1037A000D30A0E9446026093E3037093E40380937C
:1037B000E5039093E6031092E70342CF8230910530
:1037C00009F4BCC1039709F048CF80E00E94DE0AEB
:1037D0004091E8035091E9036091EA037091EB0393
:1037E000C8010E94AA1161EA72E0CE01885D9E4F75
:1037F0000E94E811B801CE01885D9E4F0E94B20D73
:10380000BC0189EC94E00E945402CE01885D9E4F79
:103810000E94560DC8010E94560D81E00E94DE0AEA
:1038200040910401509105016091060170910701DA
:10383000C8010E94AA116CE972E0CE01885D9E4F1A
:103840000E94E811B801CE01885D9E4F0E94B20D22
:10385000BC0189EC94E00E945402CE01885D9E4F29
:103860000E94560DC8010E94560D8091E2038823E4
:1038700009F4F3CEAB2809F0A8C28091E7038111C7
:10388000ECCE0E9446028090E3039090E403A09067
:10389000E503B090E603681979098A099B09653642
:1038A00071058105910500F10E9446026093E303D2
:1038B0007093E4038093E5039093E60320E030E007
:1038C00040E251E46091040170910501809106018C
:1038D000909107010E94E523609304017093050114
:1038E0008093060190930701EF2809F475C2B5CEC5
:1038F00080E00E94DE0A4091EC035091ED0360915C
:10390000EE037091EF03C8010E94AA1166E872E00D
:10391000CE01885D9E4F0E94E811B801CE01885DFE
:103920009E4F0E94B20DBC0189EC94E00E945402AB
:10393000CE01885D9E4F0E94560DC8010E94560D13
:1039400081E00E94DE0A40910801509109016091D6
:103950000A0170910B01C8010E94AA1162E872E08D
:10396000CE01885D9E4F0E94E811B801CE01885DAE
:103970009E4F0E94B20DBC0189EC94E00E9454025B
:10398000CE01885D9E4F0E94560DC8010E94560DC3
:103990008091E203882309F460CEAB2809F061C16D
:1039A0008091E703811159CE0E9446028090E30383
:1039B0009090E403A090E503B090E60368197909BC
:1039C0008A099B09653671058105910500F10E9400
:1039D00046026093E3037093E4038093E5039093BE
:1039E000E60320E030E040E85FE360910801709179
:1039F000090180910A0190910B010E94E5236093D7
:103A000008017093090180930A0190930B01EF283C
:103A100009F42EC122CE80E00E94DE0A4091F0031C
:103A20005091F1036091F2037091F303C8010E9479
:103A3000AA116EE872E0CE01885D9E4F0E94E811E7
:103A4000B801CE01885D9E4F0E94B20DBC0189EC89
:103A500094E00E945402CE01885D9E4F0E94560D54
:103A6000C8010E94560D81E00E94DE0A40910C01BF
:103A700050910D0160910E0170910F01C8010E94DB
:103A8000AA116AE872E0CE01885D9E4F0E94E8119B
:103A9000B801CE01885D9E4F0E94B20DBC0189EC39
:103AA00094E00E945402CE01885D9E4F0E94560D04
:103AB000C8010E94560D8091E203882309F4CDCD00
:103AC000AB2809F00AC18091E7038111C6CD0E949D
:103AD00046028090E3039090E403A090E503B09049
:103AE000E603681979098A099B096536710581051C
:103AF000910500F10E9446026093E3037093E40392
:103B00008093E5039093E60320E030E040E85FE334
:103B100060910C0170910D0180910E0190910F0147
:103B20000E94E52360930C0170930D0180930E01B8
:103B300090930F01EF2809F4D7C08FCD80E00E9449
:103B4000DE0A4091F4035091F5036091F603709101
:103B5000F703C8010E94AA1167E972E0CE01885DEF
:103B60009E4F0E94E811B801CE01885D9E4F0E94D1
:103B7000B20DBC0189EC94E00E945402CE01885D34
:103B80009E4F0E94560DC8010E94560D81E00E9472
:103B9000DE0A409100015091010160910201709193
:103BA0000301C8010E94AA1163E972E0CE01885D99
:103BB0009E4F0E94E811B801CE01885D9E4F0E9481
:103BC000B20DBC0189EC94E00E945402CE01885DE4
:103BD0009E4F0E94560DC8010E94560D8091E2032F
:103BE000882309F43ACDAB2809F0B3C08091E703EC
:103BF000811133CD0E9446028090E3039090E4034C
:103C0000A090E503B090E603681979098A099B0939
:103C1000653671058105910500F10E9446026093A9
:103C2000E3037093E4038093E5039093E60320E0BD
:103C300030E040E85FE36091000170910101809104
:103C40000201909103010E94E523609300017093AB
:103C500001018093020190930301EF2809F480C0D1
:103C6000FCCCEF2809F0F9CC8091E7038111F5CC69
:103C70000E9446028090E3039090E403A090E50345
:103C8000B090E603681979098A099B0965367105C0
:103C90008105910508F4E1CC0E9446026093E3039C
:103CA0007093E4038093E5039093E60320E030E013
:103CB00040E85FE3609108017091090180910A0179
:103CC00090910B010E94E423609308017093090115
:103CD00080930A0190930B01C0CCEF2809F0BDCC72
:103CE0008091E7038111B9CC0E9446028090E303E2
:103CF0009090E403A090E503B090E6036819790979
:103D00008A099B09653671058105910508F4A5CCE2
:103D10000E9446026093E3037093E4038093E503FB
:103D20009093E60320E030E040E85FE360910C010F
:103D300070910D0180910E0190910F010E94E4237A
:103D400060930C0170930D0180930E0190930F010D
:103D500084CCEF2809F081CC8091E70381117DCCE0
:103D60000E9446028090E3039090E403A090E50354
:103D7000B090E603681979098A099B0965367105CF
:103D80008105910508F469CC0E9446026093E30323
:103D90007093E4038093E5039093E60320E030E022
:103DA00040E85FE3609100017091010180910201A0
:103DB000909103010E94E42360930001709301013C
:103DC000809302019093030148CCEF2809F045CC81
:103DD0008091E703811141CC0E9446028090E30369
:103DE0009090E403A090E503B090E6036819790988
:103DF0008A099B09653671058105910508F42DCC6A
:103E00000E9446026093E3037093E4038093E5030A
:103E10009093E60320E030E040E251E46091040139
:103E20007091050180910601909107010E94E423A1
:103E3000609304017093050180930601909307013C
:103E40000CCC6FEA71E0CE010A960E94390D892BE5
:103E5000C9F06FEA71E0CE010A960E94390D009711
:103E600009F430C90E941A0960930801709309018E
:103E700080930A0190930B010E94C32490E080E09C
:103E80000E94311264EC71E0CE010A960E94390D55
:103E9000892BC9F064EC71E0CE010A960E94390DBD
:103EA000009709F413C90E941A0960930C017093DA
:103EB0000D0180930E0190930F010E94C32481E0B5
:103EC00090E00E9431126BED71E0CE010A960E94E3
:103ED000390D892BC9F06BED71E0CE010A960E9475
:103EE000390D009709F4F6C80E941A096093000181
:103EF0007093010180930201909303010E94C324F7
:103F000082E090E00E94311261EF71E0CE010A96EA
:103F10000E94390D892B09F49BC861EF71E0CE0135
:103F20000A960E94390D009709F4D8C80E941A0910
:103F3000609304017093050180930601909307013B
:103F40000E94C32483E090E00E94311281C882E580
:103F500091E09093AB048093AA048091D603909152
:103F6000D7038A5A944071F4E091BD04F091BE04E5
:103F700090818091BF048095892380831092D7031C
:103F80001092D6030895EF920F931F93CF93DF9370
:103F9000E80134E047FD34E1042E000C550B57FFD7
:103FA00003C0519541955109E32E022F242FAE01F4
:103FB0000E94E11FCE01DF91CF911F910F91EF90F1
:103FC0000895A9E0B0E0E7EEFFE10C9482236A01D6
:103FD000F22EB02E102FFBE3AF2EA01608F41BE339
:103FE0001F5F012F27E0AE014F5F5F4F0E9440210E
:103FF000BC018981982F9970913009F43FC09BE2F0
:10400000E1FC04C09E2D9170E0FC3AC05E2D507121
:10401000E82FE87083FF46C084E0911101C083E07F
:10402000EF2DE81B8F1508F0E0E0D6018E2F20E27F
:10403000552351F1992329F0D6019C93C60101968D
:104040006C0196012D5F3F4FE2FE24C08EE4D60145
:104050008C9391E411969C93119712968C93D901AD
:104060008E2F90E281111BC0E20FF32FF11D108201
:104070008EEF9FEF2996ECE00C949E239DE2C6CF35
:1040800090E2C4CF2D9381508111FCCFCE0ED11C74
:10409000E0E0D0CF8EE6D6018C9391E6DBCF9D9306
:1040A0008150E0CF482F447082FF3DC084E09111E1
:1040B00001C083E08F1510F4EF2DE81BD6018E2F81
:1040C00020E2552309F1992329F0D6019C93C601DA
:1040D00001966C0196012D5F3F4FE2FE1BC089E403
:1040E000D6018C938EE411968C93119786E41296E8
:1040F0008C93D9018E2F90E2882309F4B5CF9D933C
:104100008150FACF2D9381508111FCCFCE0ED11C5E
:10411000E0E0D9CF89E6D6018C938EE611968C9398
:10412000119786E6E4CF9B0177FF02C030E020E0E4
:10413000A1E0B0E0911102C0B0E0A0E0F901319639
:10414000AE0FBF1F8B2C912CBB2009F461C0540112
:10415000EFEFAE1ABE0AAA0DBB1DFA161B0619F028
:1041600014F04F2D4A1B511188C0E3FC59C0760151
:10417000A42FB0E2A1114FC0C40ED11C992309F4A1
:104180005BC040E0D6011196F60190836D01552386
:1041900009F448C0012F060F9A81582F507184FFEF
:1041A00003C0913309F4015010160CF047C00930D8
:1041B00008F008E0EEE2FE2E5B01A01AB1088501CE
:1041C0009194819491082F3F320729F4D601FC92F3
:1041D000F60131966F016217730794F10217130706
:1041E0007CF5DB01A21BB30BAA24A394B12CAC0E6B
:1041F000BD1EAA0DBB1D11968C9121503109D6010F
:10420000119628153905F4F0F60180836D01DBCF96
:10421000B12CA12CA0CFF701B1937F01A150AACF5F
:104220009111B0CFD601942F50E302C05D9391500D
:104230009111FCCFC40ED11C40E0ACCF01E0BACF4D
:1042400080E3DBCF6217730731F4963388F495333C
:1042500011F4552369F0F6018083FD01842F90E26B
:10426000811108C0A40FB11D1C9290E080E002CF24
:1042700081E3F1CF91938150F3CF911183CF8ACF16
:10428000283008F027E03327DA01990F311D87FD28
:10429000916000966105710539F432602E5F3D939F
:1042A00030E32A95E1F708959F3F30F0803871059B
:1042B000610509F03C5F3C5F3D93913008F08068F8
:1042C000911DDF93CF931F930F93FF92EF92192FBE
:1042D000987F9695E92F96959695E90FFF27EE53CF
:1042E000FF4F99273327EE24FF24A701E70105900C
:1042F0000894079428F4360FE71EF81E491F511D35
:10430000660F771F881F991F0694A1F705900794E1
:1043100028F4E70EF81E491F561FC11D770F881F8E
:10432000991F661F0694A1F70590079428F4F80ECC
:10433000491F561FC71FD11D880F991F661F771F62
:104340000694A1F70590079420F4490F561FC71F44
:10435000D81F990F661F771F881F0694A9F78491AD
:104360001095177041F0D695C79557954795F794D6
:10437000E7941A95C1F7E8E6F0E068941590159176
:1043800035916591959105907FE27395E118F10A59
:10439000430B560BC90BD009C0F7E10CF11E431FAC
:1043A000561FC91FD01D7EF4703311F48A95E6CFD5
:1043B000E894015030F0080F0AF40027021708F4BF
:1043C000202F2395022F7A3328F079E37D932A95C5
:1043D000E9F710C07D932A9589F60694979567951D
:1043E000379517951794E118F10A430B560BC90B33
:1043F000D00998F023957E9173957A3308F070E395
:104400007C932013B8F77E9170617D9330F0839593
:1044100071E37D9370E32A95E1F71124EF90FF900B
:104420000F911F91CF91DF91992787FD9095089566
:104430000E945A2208F481E00895E89409C097FB8D
:104440003EF490958095709561957F4F8F4F9F4F6B
:104450009923A9F0F92F96E9BB279395F6958795AF
:1044600077956795B795F111F8CFFAF4BB0F11F472
:1044700060FF1BC06F5F7F4F8F4F9F4F16C0882319
:1044800011F096E911C0772321F09EE8872F762F4F
:1044900005C0662371F096E8862F70E060E02AF090
:1044A0009A95660F771F881FDAF7880F969587957C
:1044B00097F90895990F0008550FAA0BE0E8FEEF51
:1044C00016161706E807F907C0F012161306E407D8
:1044D000F50798F0621B730B840B950B39F40A26D1
:1044E00061F0232B242B252B21F408950A2609F4AF
:1044F000A140A6958FEF811D811D08950E949122F4
:104500000C9402230E94F42238F00E94FB2220F037
:10451000952311F00C94EB220C94F12211240C94AD
:1045200036230E94132370F3959FC1F3950F50E03B
:10453000551F629FF001729FBB27F00DB11D639F55
:10454000AA27F00DB11DAA1F649F6627B00DA11DFB
:10455000661F829F2227B00DA11D621F739FB00DA1
:10456000A11D621F839FA00D611D221F749F332711
:10457000A00D611D231F849F600D211D822F762FAA
:104580006A2F11249F5750409AF0F1F088234AF087
:10459000EE0FFF1FBB1F661F771F881F91505040F3
:1045A000A9F79E3F510580F00C94EB220C94362322
:1045B0005F3FE4F3983ED4F3869577956795B7957A
:1045C000F795E7959F5FC1F7FE2B880F911D969594
:1045D000879597F9089597F99F6780E870E060E004
:1045E00008959FEF80EC089500240A94161617068C
:1045F00018060906089500240A94121613061406D4
:1046000005060895092E0394000C11F4882352F036
:10461000BB0F40F4BF2B11F460FF04C06F5F7F4FEE
:104620008F4F9F4F089557FD9058440F551F59F0D5
:104630005F3F71F04795880F97FB991F61F09F3F8F
:1046400079F087950895121613061406551FF2CFB8
:104650004695F1DF08C0161617061806991FF1CF08
:1046600086957105610508940895E894BB2766272F
:104670007727CB0197F90895F999FECF92BD81BDB7
:10468000F89A992780B50895262FF999FECF1FBA79
:1046900092BD81BD20BD0FB6F894FA9AF99A0FBE6B
:1046A00001960895052E97FB1EF400940E9469233D
:1046B00057FD07D00E94B32307FC03D04EF40C949F
:1046C000692350954095309521953F4F4F4F5F4F4F
:1046D000089590958095709561957F4F8F4F9F4F6E
:1046E00008950E94D523A59F900DB49F900DA49F7F
:1046F000800D911D112408952F923F924F925F9249
:104700006F927F928F929F92AF92BF92CF92DF92E1
:10471000EF92FF920F931F93CF93DF93CDB7DEB746
:10472000CA1BDB0B0FB6F894DEBF0FBECDBF0994DA
:104730002A88398848885F846E847D848C849B8431
:10474000AA84B984C884DF80EE80FD800C811B813F
:10475000AA81B981CE0FD11D0FB6F894DEBF0FBE6E
:10476000CDBFED010895A1E21A2EAA1BBB1BFD01CE
:104770000DC0AA1FBB1FEE1FFF1FA217B307E40740
:10478000F50720F0A21BB30BE40BF50B661F771F98
:10479000881F991F1A9469F7609570958095909578
:1047A0009B01AC01BD01CF010895A29FB001B39F51
:1047B000C001A39F700D811D1124911DB29F700D2A
:1047C000811D1124911D08955058BB27AA270E94CE
:1047D000FC230C9402230E94F42238F00E94FB2256
:1047E00020F039F49F3F19F426F40C94F1220EF4D2
:1047F000E095E7FB0C94EB22E92F0E94132358F37A
:10480000BA17620773078407950720F079F4A6F5B5
:104810000C9435230EF4E0950B2EBA2FA02D0B012E
:10482000B90190010C01CA01A0011124FF27591BF5
:1048300099F0593F50F4503E68F11A16F040A22FFB
:10484000232F342F4427585FF3CF4695379527956C
:10485000A795F0405395C9F77EF41F16BA0B620B6B
:10486000730B840BBAF09150A1F0FF0FBB1F661FB2
:10487000771F881FC2F70EC0BA0F621F731F841FF5
:1048800048F4879577956795B795F7959E3F08F01B
:10489000B0CF9395880F08F09927EE0F97958795DD
:1048A00008950E9465240C9402230E94FB2258F074
:1048B0000E94F42240F029F45F3F29F00C94EB228F
:1048C00051110C9436230C94F1220E94132368F3A7
:1048D0009923B1F3552391F3951B550BBB27AA27B9
:1048E00062177307840738F09F5F5F4F220F331FF3
:1048F000441FAA1FA9F335D00E2E3AF0E0E832D0BB
:1049000091505040E695001CCAF72BD0FE2F29D0BD
:10491000660F771F881FBB1F261737074807AB078F
:10492000B0E809F0BB0B802DBF01FF2793585F4F04
:104930003AF09E3F510578F00C94EB220C9436230C
:104940005F3FE4F3983ED4F3869577956795B795E6
:10495000F7959F5FC9F7880F911D9695879597F9F1
:104960000895E1E0660F771F881FBB1F621773076A
:104970008407BA0720F0621B730B840BBA0BEE1F7F
:1049800088F7E09508950E941B2388F09F5798F0C0
:10499000B92F9927B751B0F0E1F0660F771F881F44
:1049A000991F1AF0BA95C9F714C0B13091F00E945E
:1049B0003523B1E008950C943523672F782F88278D
:1049C000B85F39F0B93FCCF3869577956795B39585
:1049D000D9F73EF490958095709561957F4F8F4FF4
:1049E0009F4F08950E945A2208F48FEF0895AA1B42
:1049F000BB1B51E107C0AA1FBB1FA617B70710F0CA
:104A0000A61BB70B881F991F5A95A9F780959095FB
:104A1000BC01CD0108950E94D523B7FF0895821BE4
:104A2000930B0895EE0FFF1F0590F491E02D09946C
:104A30000F931F93CF93DF938230910510F482E0A0
:104A400090E0E091E504F091E60430E020E0B0E091
:104A5000A0E0309799F42115310509F44AC0281BCC
:104A6000390B24303105D8F58A819B816115710598
:104A700089F1FB0193838283FE0111C04081518142
:104A80000281138148175907E0F04817590799F434
:104A9000109761F012960C93129713961C9332960E
:104AA000CF01DF91CF911F910F9108950093E504FD
:104AB0001093E604F4CF2115310551F04217530746
:104AC00038F0A901DB019A01BD01DF01F801C1CF76
:104AD000EF01F9CF9093E6048093E504CDCFFE017A
:104AE000E20FF31F81939193225031093983288378
:104AF000D7CF2091E3043091E404232B41F420919B
:104B00001201309113013093E4042093E3042091C7
:104B10001001309111012115310541F42DB73EB737
:104B20004091140150911501241B350BE091E304D1
:104B3000F091E404E217F307A0F42E1B3F0B2817B3
:104B4000390778F0AC014E5F5F4F2417350748F006
:104B50004E0F5F1F5093E4044093E30481939193BD
:104B60009FCFF0E0E0E09CCFCF93DF930097E9F098
:104B7000FC01329713821282A091E504B091E60401
:104B8000ED0130E020E01097A1F420813181820F07
:104B9000931F2091E3043091E4042817390709F0AA
:104BA00061C0F093E404E093E304DF91CF910895B2
:104BB000EA01CE17DF07E8F54A815B819E014115C6
:104BC0005105B1F7E901FB83EA8349915991C40F7B
:104BD000D51FEC17FD0761F4808191810296840F47
:104BE000951FE90199838883828193819B838A83BE
:104BF000F0E0E0E012968D919C9113970097B9F543
:104C00002D913C911197CD010296820F931F209117
:104C1000E3043091E4042817390739F6309751F549
:104C20001092E6041092E504B093E404A093E30428
:104C3000BCCFD383C28340815181840F951FC81795
:104C4000D90761F44E5F5F4F88819981480F591FE2
:104C5000518340838A819B8193838283211531050F
:104C600009F0B0CFF093E604E093E5049ECFFD0198
:104C7000DC01C0CF13821282D7CFB0E0A0E0E3E422
:104C8000F6E20C947E238C01009751F4CB010E9434
:104C900018258C01C801CDB7DEB7E0E10C949A234A
:104CA000FC01E60FF71F9C0122503109E217F307C0
:104CB00008F49DC0D901CD91DC911197C617D70793
:104CC00098F0C530D10530F3CE01049786179707C9
:104CD00008F3C61BD70B2297C193D1936D937C9396
:104CE000CF010E94B425D6CF5B01AC1ABD0A4C019E
:104CF0008C0E9D1EA091E504B091E604512C412C30
:104D0000F12CE12C109731F58091E3049091E404AB
:104D10008815990509F05CC04616570608F058C07A
:104D20008091100190911101009741F48DB79EB7C9
:104D30004091140150911501841B950BE817F90758
:104D400008F055C0F093E404E093E304F9017183A3
:104D50006083A0CF8D919C91119712966C901297C1
:104D600013967C901397A815B90559F56C0142E08C
:104D7000C40ED11CCA14DB0420F1AC014A195B0932
:104D8000DA011296159780F0628273825183408314
:104D9000D9016D937C93E114F10471F0D70113965E
:104DA000FC93EE93129776CF22968C0F9D1FF901FC
:104DB00091838083F301EFCFF093E604E093E50461
:104DC00069CF4816590608F42C017D01D3019ACF0A
:104DD000CB010E9418257C01009749F0AE01B80173
:104DE0000E94FA26C8010E94B425870153CF10E023
:104DF00000E050CFFB01DC0102C001900D92415058
:104E00005040D8F70895FB01DC0101900D9200207D
:104E1000E1F7089510E0C7EFD0E004C0FE010E9462
:104E200012252196C83FD107C9F7F894FFCF00009B
:104E3000484200002F440000F041000048420000BA
:104E4000E70480000000400014005400A502A802FE
:104E5000B302C302D002D902000000003403620290
:104E60008F028103F2029E02E402000000000A05A4
:104E7000DD042006B903D604C304B4040000000016
:104E8000BA0362022006B90316042C04A103000031
:104E900000000F0B620220064D042F2F22225C5CC3
:104EA0006208660C6E0A720D7409007472756500F2
:104EB00066616C7365006E756C6C005C75303030CB
:104EC0003000446573657269616C697A6174696FF9
:104ED0006E206572726F723A20000D0A0074656D63
:104EE000706572617475726555736572426F756E27
:104EF0006400746F74616C48756D69646974795588
:104F0000736572426F756E6400736F696C48756D7E
:104F1000696469747955736572426F756E64007067
:104F2000686F746F7265736973746F7255736572AD
:104F3000426F756E640052656164206661696C0041
:104F4000736F696C48756D696469747900746F7406
:104F5000616C48756D69646974790074656D70651C
:104F60007261747572650070686F746F72657369D1
:104F700073746F720068656174696E6752656C6105
:104F800079006C69676874696E6752656C61790055
:104F900076656E74696C6174696F6E52656C617967
:104FA00000776174657250756D7052656C6179003F
:104FB00073657420543A20007365742054483A2075
:104FC000007365742053483A2000736574202050A4
:104FD0003A20004F6B00456D707479496E7075749E
:104FE00000496E636F6D706C657465496E707574A1
:104FF00000496E76616C6964496E707574004E6F1D
:105000004D656D6F727900546F6F44656570000077
:107E0000112484B714BE81FFF0D085E080938100F7
:107E100082E08093C00088E18093C10086E0809377
:107E2000C20080E18093C4008EE0C9D0259A86E02C
:107E300020E33CEF91E0309385002093840096BBD3
:107E4000B09BFECF1D9AA8958150A9F7CC24DD24C4
:107E500088248394B5E0AB2EA1E19A2EF3E0BF2EE7
:107E6000A2D0813461F49FD0082FAFD0023811F036
:107E7000013811F484E001C083E08DD089C08234E0
:107E800011F484E103C0853419F485E0A6D080C0E4
:107E9000853579F488D0E82EFF2485D0082F10E0AE
:107EA000102F00270E291F29000F111F8ED06801E7
:107EB0006FC0863521F484E090D080E0DECF843638
:107EC00009F040C070D06FD0082F6DD080E0C81688
:107ED00080E7D80618F4F601B7BEE895C0E0D1E017
:107EE00062D089930C17E1F7F0E0CF16F0E7DF06D8
:107EF00018F0F601B7BEE89568D007B600FCFDCFD4
:107F0000A601A0E0B1E02C9130E011968C91119780
:107F100090E0982F8827822B932B1296FA010C0160
:107F200087BEE89511244E5F5F4FF1E0A038BF0790
:107F300051F7F601A7BEE89507B600FCFDCF97BE46
:107F4000E89526C08437B1F42ED02DD0F82E2BD052
:107F50003CD0F601EF2C8F010F5F1F4F84911BD097
:107F6000EA94F801C1F70894C11CD11CFA94CF0C13
:107F7000D11C0EC0853739F428D08EE10CD085E9AC
:107F80000AD08FE07ACF813511F488E018D01DD067
:107F900080E101D065CF982F8091C00085FFFCCF94
:107FA0009093C60008958091C00087FFFCCF809118
:107FB000C00084FD01C0A8958091C6000895E0E648
:107FC000F0E098E1908380830895EDDF803219F02E
:107FD00088E0F5DFFFCF84E1DECF1F93182FE3DFCA
:107FE0001150E9F7F2DF1F91089580E0E8DFEE27F6
:047FF000FF270994CA
:027FFE00040479
:00000001FF
